{
  "transactions": [
    {
      "hash": "0xd0a230ce5331152a7a01a90c2e39137f0714267dfff88c3afcda82821f05aa84",
      "transactionType": "CALL",
      "contractName": null,
      "contractAddress": "0x779877a7b0d9e8603169ddbd7836e478b4624789",
      "function": "transferAndCall(address,uint256,bytes)",
      "arguments": [
        "0x9DdfaCa8183c41ad55329BdeeD9F6A8d53168B1B",
        "3000000000000000000",
        "0xf9d7438a3a5208c17151b2e2a210daa983898d6d906c3b0dcce76a696decc6b9"
      ],
      "transaction": {
        "from": "0xc0bf06ce338fcfe868b9c43da99a7c496892a15d",
        "to": "0x779877a7b0d9e8603169ddbd7836e478b4624789",
        "gas": "0x1c1ff",
        "value": "0x0",
        "input": "0x4000aea00000000000000000000000009ddfaca8183c41ad55329bdeed9f6a8d53168b1b00000000000000000000000000000000000000000000000029a2241af62c000000000000000000000000000000000000000000000000000000000000000000600000000000000000000000000000000000000000000000000000000000000020f9d7438a3a5208c17151b2e2a210daa983898d6d906c3b0dcce76a696decc6b9",
        "nonce": "0x9",
        "chainId": "0xaa36a7"
      },
      "additionalContracts": [],
      "isFixedGasLimit": false
    }
  ],
  "receipts": [
    {
      "status": "0x1",
      "cumulativeGasUsed": "0x95795a",
      "logs": [
        {
          "address": "0x779877a7b0d9e8603169ddbd7836e478b4624789",
          "topics": [
            "0xddf252ad1be2c89b69c2b068fc378daa952ba7f163c4a11628f55a4df523b3ef",
            "0x000000000000000000000000c0bf06ce338fcfe868b9c43da99a7c496892a15d",
            "0x0000000000000000000000009ddfaca8183c41ad55329bdeed9f6a8d53168b1b"
          ],
          "data": "0x00000000000000000000000000000000000000000000000029a2241af62c0000",
          "blockHash": "0x31bd10562c951213561bcb056ffce61a3ab71b82dd53ca5aaafddd193c90863a",
          "blockNumber": "0x7a88a4",
          "blockTimestamp": "0x67ec5754",
          "transactionHash": "0xd0a230ce5331152a7a01a90c2e39137f0714267dfff88c3afcda82821f05aa84",
          "transactionIndex": "0x57",
          "logIndex": "0xa1",
          "removed": false
        },
        {
          "address": "0x779877a7b0d9e8603169ddbd7836e478b4624789",
          "topics": [
            "0xe19260aff97b920c7df27010903aeb9c8d2be5d310a2c67824cf3f15396e4c16",
            "0x000000000000000000000000c0bf06ce338fcfe868b9c43da99a7c496892a15d",
            "0x0000000000000000000000009ddfaca8183c41ad55329bdeed9f6a8d53168b1b"
          ],
          "data": "0x00000000000000000000000000000000000000000000000029a2241af62c000000000000000000000000000000000000000000000000000000000000000000400000000000000000000000000000000000000000000000000000000000000020f9d7438a3a5208c17151b2e2a210daa983898d6d906c3b0dcce76a696decc6b9",
          "blockHash": "0x31bd10562c951213561bcb056ffce61a3ab71b82dd53ca5aaafddd193c90863a",
          "blockNumber": "0x7a88a4",
          "blockTimestamp": "0x67ec5754",
          "transactionHash": "0xd0a230ce5331152a7a01a90c2e39137f0714267dfff88c3afcda82821f05aa84",
          "transactionIndex": "0x57",
          "logIndex": "0xa2",
          "removed": false
        },
        {
          "address": "0x9ddfaca8183c41ad55329bdeed9f6a8d53168b1b",
          "topics": [
            "0x1ced9348ff549fceab2ac57cd3a9de38edaaab274b725ee82c23e8fc8c4eec7a",
            "0xf9d7438a3a5208c17151b2e2a210daa983898d6d906c3b0dcce76a696decc6b9"
          ],
          "data": "0x000000000000000000000000000000000000000000000000000000000000000000000000000000000000000000000000000000000000000029a2241af62c0000",
          "blockHash": "0x31bd10562c951213561bcb056ffce61a3ab71b82dd53ca5aaafddd193c90863a",
          "blockNumber": "0x7a88a4",
          "blockTimestamp": "0x67ec5754",
          "transactionHash": "0xd0a230ce5331152a7a01a90c2e39137f0714267dfff88c3afcda82821f05aa84",
          "transactionIndex": "0x57",
          "logIndex": "0xa3",
          "removed": false
        }
      ],
      "logsBloom": "0x00000004000000000000000000000000000000000020000000000000020000000000000000000000000000000000000000000000000000000000000000000000000000000000000000000008000000000000000000000000000020000020000008000000000000000000000000000000000000000000000000000010000040000000000400000000000000010000800000000020000000000000000000000000000000000000000000000000010000000000000000000000000004800000002000000002000001000000000000040000000000000000000100000000000000000010000080000000800000000000000000000000000000000000000000000000",
      "type": "0x2",
      "transactionHash": "0xd0a230ce5331152a7a01a90c2e39137f0714267dfff88c3afcda82821f05aa84",
      "transactionIndex": "0x57",
      "blockHash": "0x31bd10562c951213561bcb056ffce61a3ab71b82dd53ca5aaafddd193c90863a",
      "blockNumber": "0x7a88a4",
      "gasUsed": "0x133b1",
      "effectiveGasPrice": "0x228fe3",
      "from": "0xc0bf06ce338fcfe868b9c43da99a7c496892a15d",
      "to": "0x779877a7b0d9e8603169ddbd7836e478b4624789",
      "contractAddress": null
    }
  ],
  "libraries": [],
  "pending": [],
  "returns": {},
  "timestamp": 1743542102,
  "chain": 11155111,
  "commit": "36d5469"
}